:100B4800000000000000FFFFFFFFFFFF150E1F0E53
:100B580015000A1F12121F0A0A1F12121F0AF5E0B7
:100B6800EDEDE0F5EAF1E0F1EAFF181000001018E9
:100B78003E4141413E007F020C307F007F414122CF
:100B88001C007F49494941001F2040201F003E4169
:100B98004141220001017F01010041417F414100A3
:100BA8000201590906007E0909097E0000005F005C
:100BB80000000000000000003F4040403F003E456C
:100BC80049513E0000217F01000023454951210081
:100BD8004241516946000C14247F0400725151515E
:100BE8004E001E29494906004047485060003649D2
:100BF800494936003049494A3C00000006060000D1
:100C08007F0814224100FE601860FE0004050B04F2
:100C1800030105030C0A000102030405040907087F
:0A0C280009050702030106030A0A8A
:10102D00010804010F00010C09010900010A030167
:0C103D000B00020D0000C102C180C18147
:080FD300C2A1D2A27F017E0041
:100FDB00E4FDFCC3ED9FEE6480F8EC648098501543
:100FEB00E4FBFA0BBB00010AEB640A4A70F50DBD7A
:050FFB0000010C80DE86
:0110000022CD
:05109A00C2A3D2A42254
:05109F00D2A3C2A4224F
:05107D0012109F7F40EE
:0C1082008F90C2A0120FD3C2A2020FDB9D
:0C108E008F90D2A0120FD3C2A2020FDB81
:100EEF00F583E49375F006A42478F9740B35F0FAC2
:020EFF007BFF77
:060F01008B478A48894974
:100F0700E4F54AF54BAB47AA48A949854B82854A80
:100F170083120C32FF12108E054BE54B7002054A07
:0B0F2700C39406E54A6480948040DA21
:010F3200229C
:060EA3007B007D0A7C00CB
:0A0EA9008B408A4189428C438D443E
:100EB300E4F545F546C3E5469544E5436480F8E526
:100EC300456480985025AB40AA41A9428546828556
:100ED3004583120C3275F006A42448F9740B120EE4
:0B0EE300FC0546E54670CE054580CAC0
:010EEE0022E1
:10100100EF540FC454F0FEEF54F0C4540F4EFF548C
:101011003325E025E0FEEF54CC1313543F4EFF542B
:0C1021005525E0FEEF54AAC3134EFF2239
:100CFC00AB0EAA0D7C007D64AF03AE02120C818F8B
:100D0C00407C007D0AAF03AE02120C817C007D0A90
:100D1C00120C818D4175420AAE02AF037C007D0A34
:100D2C00120C818D4375440B75450C12107D7FBAE6
:100D3C00121082E4F546F547E4F548F54974402570
:100D4C0047F8E675F006A424C6F582E4340BF58367
:100D5C00E5822549F582E5833548F583E493FF1256
:100D6C00100112108E0549E54970020548C394061E
:100D7C00E548940040C70547E54770020546C39413
:070D8C0006E546940040B1AA
:010D9300223D
:060E20007B007A0079104E
:060E26008B218A228923C2
:100E2C00E4FFFE74882FF8E6FD74922FF8A6057483
:100E3C007E2FF8E6FD74882FF8A60574742FF8E65B
:100E4C00FD747E2FF8A605746A2FF8E6FD74742FD6
:100E5C00F8A60574602FF8E6FD746A2FF8A60574E1
:100E6C00562FF8E6FD74602FF8A605744C2FF8E6A3
:100E7C00FD74562FF8A605AB21AA22A9238F828ECA
:100E8C0083120C32FD744C2FF8A6050FBF00010E17
:060E9C00EF640A4E708DA8
:010EA200222D
:1010640020B2053000021508A2B2920020B3053068
:0810740001020508A2B392017C
:01107C002251
:060A34007B007A0079103E
:060A3A008B218A228923B2
:100A4000E4FFFEAB21AA22A9238F828E83E4120C3D
:100A50005F0FBF00010EEF640A4E70E7E50875F006
:100A60001FA4FDACF0E50A75F011A42DFDE5F03CE6
:100A7000FCE50975F017A42DFFE5F03CFE785AE679
:100A80007C002FFFEC3EFE7DFB120C818D0A0509D8
:100A9000E50A75F00584AFF0EFC39402500BE50F43
:100AA000C394015004050F800FEFD394034009E570
:100AB0000FD394004002150FE50A75F00784AFF0DC
:100AC000EFC39402500BE50CC394095004050C804D
:100AD0000FEFD394044009E50CD394084002150CA1
:100AE000AB21AA22A923850F827583007402120C00
:100AF0005F850C827583007402120C5FE50A75F045
:100B00000384E5F02405FFE433FEC3E5099FEE64AA
:100B100080F8748098401DE4F509E50A75F00684B4
:100B2000E5F02402AB21AA22A923F5827583007483
:100B300004120C5F050EE50E7002050DC39496E5D8
:070B40000D94004002D202F7
:010B4700228B
:0808000012109AE4F523F5241F
:10080800E5237069E524120CD6082A00083501088A
:100818004002084B03085604086105086C060000EE
:100828000875752F0075300075314C8040752F00A4
:100838007530007531568035752F0075300075316B
:1008480060802A752F0075300075316A801F752FFA
:10085800007530007531748014752F00753000757F
:10086800317E8009752F00753000753188E4F521D7
:10087800F522AB2FAA30A931852282852183120C5B
:1008880032FFAE2274322EF8A60720020302098B2B
:1008980074322EF8E670027601AB2FAA30A93185A2
:0F08A8002282852183120C3264046003020964EA
:1008B700F53CF53DC374079524F53FE49523F53ED4
:1008C700E53F6401453E700DE508B52208E4B52112
:1008D70004F53C8078E53F6402453E7035AF08FE7D
:1008E700EF24FFFDEE34FFFCC3E5229DEC6480F8A6
:1008F700E521648098401BEF2401FFEE33FED3E52A
:10090700229FEE6480F8E5216480985005753C00CD
:10091700803BE53F6403453E7036AF08FEEF24FE9B
:10092700FDEE34FFFCC3E5229DEC6480F8E521640D
:100937008098401CEF2402FFEE33FED3E5229FEEA2
:100947006480F8E5216480985006753C00753D0188
:0D095700E53D453C700774322522F876011D
:10096400E52464064523702AE508B5220DE4B52183
:100974000974322522F87607801874322522F8E6A5
:10098400B4070F7601800B74322522F8E6B407020F
:10099400E4F60522E52270020521640A452160037C
:1009A40002087A7F40121082E52424B8FF121082D4
:0709B4007A007932120EA354
:1009BB000524E52470020523C39407E52364809482
:1009CB00805003020808E4F521F522AF2274922F20
:1009DB00F8E6FE74252FF8A606300215742525229D
:1009EB00F8E67002760174252522F8E6B404027647
:1009FB00010522E52270020521640A452170CC30E5
:100A0B0002047F0580027F0374252508F8A607756D
:100A1B002502752E027F401210827FBF1210827A40
:090A2B00007925120EA3020CFC57
:10104A0074922508F8E6FFB40205E4F50BD322EF03
:0A105A00B40405750B01D322C32274
:100FA40012107D7FBC121082E4F521F52274142501
:100FB40022F582740C3521120EEF0522E52270020F
:0F0FC4000521C3940AE5216480948040E080FEFB
:100F330012107D7FBC121082E4F521F522E50B70BF
:100F43000A741E2522F582740C800874282522F564
:100F530082740C3521120EEF0522E5227002052161
:0D0F6300C3940AE5216480948040D280FE92
:100F7000120A34120E201208007F147E00120FDBBA
:100F8000121064120A34C3E50E94C9E50D940040B2
:100F900003120FA4120E2012104A5003120F331224
:040FA000080080D5F0
:03000000020D945A
:0C0D9400787FE4F6D8FD75819B020DDB32
:100C3200BB010CE58229F582E5833AF583E0225077
:100C420006E92582F8E622BBFE06E92582F8E222C1
:0D0C5200E58229F582E5833AF583E49322DB
:100C5F00F8BB010DE58229F582E5833AF583E8F0CB
:100C6F00225006E92582C8F622BBFE05E92582C877
:020C7F00F2225F
:100C8100BC000BBE0029EF8DF084FFADF022E4CC57
:100C9100F875F008EF2FFFEE33FEEC33FCEE9DEC20
:100CA100984005FCEE9DFE0FD5F0E9E4CEFD22ED66
:100CB100F8F5F0EE8420D21CFEADF075F008EF2FB0
:100CC100FFED33FD4007985006D5F0F222C398FDA1
:050CD1000FD5F0EA223E
:100CD600D083D082F8E4937012740193700DA3A3AD
:100CE60093F8740193F5828883E4737402936860C1
:060CF600EFA3A3A380DFC1
:100DA000020F70E493A3F8E493A34003F68001F2EA
:100DB00008DFF48029E493A3F85407240CC8C33354
:100DC000C4540F4420C8834004F456800146F6DF23
:100DD000E4800B010204081020408090102DE47E76
:100DE000019360BCA3FF543F30E509541FFEE49318
:100DF000A360010ECF54C025E060A840B8E493A3DF
:100E0000FAE493A3F8E493A3C8C582C8CAC583CA09
:100E1000F0A3C8C582C8CAC583CADFE9DEE780BEC1
:0110490000A6
:00000001FF
